:020000040800F2
:1000000000000820052B00083D2800083F280008B4
:100010004128000843280008452800080000000087
:100020000000000000000000000000004728000859
:1000300049280008000000004B2800084D2800084F
:10004000552B0008552B0008552B0008552B000890
:10005000552B0008552B0008552B0008552B000880
:10006000552B0008552B0008552B0008552B000870
:10007000552B0008552B0008552B0008552B000860
:10008000552B0008552B0008552B0008552B000850
:10009000552B0008552B0008552B0008552B000840
:1000A000552B0008552B0008552B0008552B000830
:1000B000552B0008552B0008552B0008552B000820
:1000C000552B0008552B0008552B0008552B000810
:1000D000552B0008552B0008552B0008552B000800
:1000E00051280008552B0008552B0008552B0008F7
:1000F000552B0008552B0008552B0008552B0008E0
:10010000552B0008552B0008552B0008552B0008CF
:10011000552B0008552B0008552B000859280008BE
:10012000552B0008552B0008552B0008552B0008AF
:10013000552B0008552B0008552B0008552B00089F
:10014000552B0008552B0008552B0008552B00088F
:10015000552B0008552B0008552B0008552B00087F
:10016000552B0008552B0008552B0008552B00086F
:10017000552B0008552B0008552B000800000000E7
:10018000552B0008552B0008552B0008552B00084F
:10019000552B0008552B0008552B0008552B00083F
:1001A000552B0008552B0008552B0008552B00082F
:1001B000552B0008552B0008552B0008552B00081F
:1001C000552B0008552B000800000000552B000897
:1001D000552B0008552B0008552B0008552B0008FF
:1001E000552B0008552B0008552B0008552B0008EF
:0801F000552B0008552B0008F7
:1002000010B5054C237833B9044B13B10448AFF350
:1002100000800123237010BD70000020000000004A
:10022000AC39000808B5034B1BB103490348AFF3D1
:10023000008008BD0000000074000020AC390008F8
:1002400001F0FF01102A2BDB10F0070F08D010F887
:10025000013B013A8B422DD010F0070F42B3F6D18B
:10026000F0B441EA012141EA014122F007047FF0A4
:1002700000070023F0E80256083C85EA010586EAFB
:10028000010685FA47F5A3FA87F586FA47F6A5FA37
:1002900087F68EB9EED1F0BC01F0FF0102F0070243
:1002A00032B110F8013B013A83EA010313B1F8D1EE
:1002B0000020704701387047002D06BF35460338CF
:1002C000073815F0010F07D1013015F4807F02BF08
:1002D000013015F4C03F0130F0BC0138704700BF59
:1002E00053B94AB9002908BF00281CBF4FF0FF319D
:1002F0004FF0FF3000F07AB9ADF1080C6DE904CE93
:1003000000F006F8DDF804E0DDE9022304B07047F0
:100310002DE9F0478C460D460446089E002B51D12E
:100320008A4217466DD9B2FA82FEBEF1000F0BD099
:10033000CEF1200C01FA0EF520FA0CFC02FA0EF7B1
:100340004CEA050C00FA0EF44FEA174A250CBCFBE8
:10035000FAF81FFA87F90AFB18CC45EA0C4508FBA6
:1003600009F3AB420AD9ED1908F1FF3280F023817D
:10037000AB4240F22081A8F102083D44ED1AA4B23C
:10038000B5FBFAF00AFB105544EA054400FB09F9F5
:10039000A14509D9E41900F1FF3380F00A81A14594
:1003A00040F2078102383C44A4EB090440EA0840CB
:1003B0000021002E61D024FA0EF400233460736013
:1003C000BDE8F0878B4207D9002E54D0002186E883
:1003D00021000846BDE8F087B3FA83F1002940F018
:1003E0008E80AB4202D3824200F2FA80841A65EB1F
:1003F00003050120AC46002E3FD086E81010BDE872
:10040000F08712B90127B7FBF2F7B7FA87FEBEF102
:10041000000F34D1EB1B3A0C1FFA87FC0121B3FB10
:10042000F2F8250C02FB183345EA03450CFB08F3F0
:10043000AB4207D9ED1908F1FF3002D2AB4200F20E
:10044000D1808046ED1AA3B2B5FBF2F002FB105545
:1004500043EA05440CFB00FCA44507D9E41900F16C
:10046000FF3302D2A44500F2B8801846A4EB0C0476
:1004700040EA08409DE731463046BDE8F087CEF1BE
:10048000200405FA0EF307FA0EF720FA04F83A0CE6
:1004900025FA04F448EA0308B4FBF2F14FEA1845E0
:1004A00002FB11441FFA87FC45EA044501FB0CF3EB
:1004B000AB4200FA0EF409D9ED1901F1FF3080F0DA
:1004C0008A80AB4240F2878002393D44EB1A1FFA22
:1004D00088F5B3FBF2F002FB103345EA034500FB5D
:1004E0000CF3AB4207D9ED1900F1FF386FD2AB42E4
:1004F0006DD902383D44EB1A40EA01418FE7C1F162
:10050000200722FA07F88B4005FA01F448EA0303B2
:1005100020FA07FE4FEA134CFD404EEA040EB5FBED
:10052000FCF94FEA1E440CFB19551FFA83F844EA04
:10053000054509FB08F4AC4202FA01F200FA01FA9F
:1005400008D9ED1809F1FF3043D2AC4241D9A9F1E5
:1005500002091D442D1B1FFA8EFEB5FBFCF00CFB9F
:1005600010554EEA054400FB08F8A04507D9E418E9
:1005700000F1FF3529D2A04527D902381C4440EAB2
:100580000940A4EB0804A0FB02894C45C6464D4631
:1005900015D312D056B1BAEB0E0364EB050404FA7E
:1005A00007F7CB401F43CC40376074600021BDE8A3
:1005B000F0871846F8E69046E0E6C245EAD2B8EB86
:1005C000020E69EB03050138E4E72846D7E7404609
:1005D00091E78146BEE7014678E702383C4445E7AB
:1005E000084608E7A8F102083D442BE7704700BF22
:1005F00038B50E4B05460E4A18784FF47A73B3FBA4
:10060000F0F31068B0FBF3F000F09EF8044658B920
:100610000F2D09D8024629464FF0FF3000F04EF862
:10062000044B20461D6038BD012038BD000000206D
:10063000080000200400002008B5032000F02CF87A
:100640000020FFF7D5FF02F0E1F8002008BD000010
:10065000034A044B11681B780B441360704700BFBA
:10066000A800002000000020014B1868704700BF60
:10067000A800002038B50446FFF7F6FF0546631CC6
:100680001EBF044B1B78E418FFF7EEFF401B8442AB
:10069000FAD838BD00000020074A0002D36800F4F1
:1006A000E06023F4E0631B041B0C43F0BF6343F4DE
:1006B00000330343D360704700ED00E0194B30B5C1
:1006C000DC68C4F30224C4F10703251D042B28BFF2
:1006D0000423062D4FF001058CBF033C002405FACE
:1006E00003F3002803F1FF3301EA030101FA04F1E7
:1006F00005FA04F404F1FF3402EA040242EA0102BA
:100700004FEA021207DB00F16040D2B200F561400F
:1007100080F8002330BD00F00F00D2B2024B1A5413
:1007200030BD00BF00ED00E014ED00E0002808DB64
:100730004209012300F01F0003FA00F0014B43F8C7
:100740002200704700E100E00138B0F1807F0AD25A
:10075000064BF021064A5860002082F82310072239
:1007600098601A6070470120704700BF10E000E0F9
:1007700000ED00E070B5044629B14FF40063C3609A
:100780004FF480438360E3692268002BE068A3682C
:10079000156808BF4FF4806143EA00032E4818BF74
:1007A0000021284043F40073034301200B431360EE
:1007B0001568FFF75FFF2368402201201D605A6023
:1007C0005D68FFF757FF236801205D6000259D608D
:1007D000DD609A6922F0BE021204120C42F080021F
:1007E0009A619E69FFF746FF236801209E61DD61E3
:1007F000DD69FFF73FFF22680120184BD56141F208
:10080000180551590B4043F0087343F0040353514A
:100810005659FFF72FFF23680120114A5E5103F557
:1008200080531A601D68FFF725FF226802F5805388
:100830001D60A369012B07D141F21C01535843F4F9
:10084000803343F0400353506369064A998811602E
:100850001A68054B1A6070BD0F8120FF233FDEF838
:100860008020C1024080024044800240F8B590F8E8
:10087000443005461646822B30D002688223890117
:1008800080F84430136901F4F86403F01C0121433B
:10089000048AE402A4B20C4344F001041461FFF79B
:1008A000E3FE074614F0010007D12B685B699BB299
:1008B0003360012385F84430F8BDFFF7D5FEC01B37
:1008C000B0F5803F07D30123032085F8443000238F
:1008D00085F84530F8BD2B681C69E3E70220F8BDB8
:1008E00090F84430422B70B505462ED042238C013F
:1008F00092B280F8443004F4F864036844F00304CE
:10090000186900F01C0020432C8A5A61E402A4B24A
:1009100004431C61FFF7A8FE064614F0010003D152
:10092000012385F8443070BDFFF79EFE801BB0F5B3
:10093000803F07D30123032085F84430002385F846
:10094000453070BD2B681C69E7E7022070BD0000D0
:100950000023F7B504460093002800F0DC8090F8EF
:10096000443003F0FF021BB980F8452001F078FD08
:100970006A4B5A6C42F480425A645B6C03F48043C5
:100980000193019B664B5A6822F400025A605A6830
:10099000216A0A435A60236803F580531A6842F0BB
:1009A00001021A60FFF760FE0546236803F58052D6
:1009B0001268D0071DD41D6900F004FD594B5A4A36
:1009C00025F01C050344934222D845F0080523680E
:1009D0004FF40042002120461D61FFF781FF0546CC
:1009E00068B3012501212046FFF7C4FE84F8445076
:1009F0000BE0FFF739FE401BB0F5FA7FD5D9032590
:100A0000002384F8445084F84530284603B0F0BDF4
:100A1000464B474A0344934202D845F00C05D6E7BB
:100A2000444B454A03449342D1D9444B444A03447E
:100A3000934294BF45F0040545F01005C7E7FF2039
:100A4000FFF718FE6368002B53D0FFF70DFE41F24D
:100A5000883706466A4601212046FFF707FFFFF761
:100A600003FE801BB8420BD901212046FFF782FE0E
:100A70000123032584F84430002384F84530C4E77B
:100A8000009B5907E6D54FF4805200212046FFF71E
:100A900027FF0028A5D1FFF7E7FD41F2883706467A
:100AA0006A4601212046FFF7E1FEFFF7DDFD801BCE
:100AB000B842D9D8009B9A06F2D56A461F21204633
:100AC000FFF7D4FE00288CD1009B13F0100218BF52
:100AD0004FF400625B074CBF00234FF48043E26099
:100AE000A36000212046FFF745FE012384F844302F
:100AF0008BE7A3682946E26820465B0843EAD202F6
:100B000092B2FFF7EDFE00287FF46BAF40F6FF7066
:100B1000FFF7B0FDE5E7012577E700BF00380240A9
:100B20000038014000D3CEFEBFE1E40040F1E9FD12
:100B30003F787D0100796CFCFF596202001F0AFAC0
:100B40007FF0FA022DE9F04F0B6885B0DFF8C08125
:100B5000019300236C4ADFF8BC914FF0010E019C19
:100B60000EFA03FE0EEA0406B64540F0B3804C6868
:100B700024F01007022F16D14FEAD30A03F0070B17
:100B80004FF00F0C00EB8A0A4FEA8B0BDAF820507B
:100B90000CFA0BFC25EA0C0C0D6905FA0BF545EA7D
:100BA0000C05CAF820504FEA430A0325D0F800B0DC
:100BB00004F0030C05FA0AF5013F0CFA0AFCED43B8
:100BC000012F0BEA050B4CEA0B0CC0F800C011D842
:100BD000876807EA050BCF6807FA0AFC4CEA0B079F
:100BE0008760476827EA0E0EC4F300179F4047EA64
:100BF0000E074760C7683D408F6807FA0AF73D4314
:100C0000C560E50066D5D8F8445023F0030703F02B
:100C1000030E4FF00F0C45F4804507F180474FEA73
:100C20008E0EC8F8445007F59C37D8F8445005F4A8
:100C300080450395039D0CFA0EF5D7F808A02AEA23
:100C4000050C324DA8424CD005F58065A8424AD02B
:100C500005F58065A84248D005F58065A84246D0D4
:100C600005F58065A84244D0484544D005F50065A7
:100C7000A84242D005F58065A84240D005F58065C0
:100C8000A8423ED005F58065A84214BF0A25092573
:100C900005FA0EF514F4803F45EA0C05BD606FEAD5
:100CA000060715680CBF3D40354314F4003F15603E
:100CB00055680CBF3D40354314F4801F556095685E
:100CC0000CBF3D403543A4029560D56854BF3D40FC
:100CD0003543D5600133102B7FF43FAF05B0BDE83D
:100CE000F08F0025D4E70125D2E70225D0E70325C0
:100CF000CEE70425CCE70525CAE70625C8E7072582
:100D0000C6E70825C4E700BF003C014000000240E0
:100D100000380240001402400369194214BF012048
:100D2000002070470AB1816170470904FBE74369FD
:100D300031EA030308BF09048161704708B5044B19
:100D40005969014202D0586101F03EFD08BD00BF63
:100D5000003C0140F0B504468BB030B390F8BD3391
:100D600003F0FF021BB980F8BC2301F085FE254685
:100D700003236E46271D55F8100B84F8BD3301F090
:100D800030FA0FCD0FC60FCD0FC695E803002546EC
:100D900086E8030097E80E0055F8100B01F0E6F91D
:100DA000064620B1022384F8BD33012554E00146F4
:100DB000206801F01CFA3046D4F804E01C264FF0FD
:100DC000010C0146C2B2013096451BD800231C26F7
:100DD0001946D8B20133864522D80FCD6E460FC6CC
:100DE0000FCD0FC695E8030086E8030097E80E00D4
:100DF000206801F03DFA0123054600B3022284F881
:100E0000BD23D2E706FB024383F83DC083F83C20B4
:100E1000A3F8422083F83F10596499641965D1E71B
:100E200006FB004282F8FD1182F8FC0182F8FF11F6
:100E3000C2F80412C2F80812C2F81012C9E784F806
:100E4000380084F8BD33636A012B02D1204600F0DC
:100E500006F8206801F0D0FA28460BB0F0BD012159
:100E600002680346C0F8FC13002083F8F40393697A
:100E700043F000639361536D43F0805343F00303E9
:100E800053657047024A136843F4807313607047D8
:100E900000700040194B37B51A6C194C42F0805263
:100EA0001A641B6C03F080530193019B236843F485
:100EB00080332360FFF7D8FB05466368DA030CD55F
:100EC000236843F400332360FFF7CEFB0C4C054648
:100ED00063689B030AD5002006E0FFF7C5FB401BB3
:100EE000B0F57A7FE9D9032003B030BDFFF7BCFB32
:100EF000401BB0F57A7FEBD9F5E700BF0038024020
:100F0000007000402DE9F341044618B9012002B0F9
:100F1000BDE8F0810368D80710D4236899075ED430
:100F20002368190700F1A38023685A0700F1C480E1
:100F3000A269002A40F02E810020E8E7934B9A68CE
:100F400002F00C02042A07D09A6802F00C02082A68
:100F50000AD15B685A0207D58C4B1B689B03DCD512
:100F60006368002BD9D1D1E76368884DB3F5803F22
:100F700011D12B6843F480332B60FFF775FB834D51
:100F800006462B689F03C8D4FFF76EFB801B6428BE
:100F9000F7D90320BBE79BB92B6823F480332B6080
:100FA0002B6823F480232B60FFF75EFB06462B683B
:100FB0009803B2D5FFF758FB801B6428F7D9E8E700
:100FC000B3F5A02F2B6803D143F480232B60D0E727
:100FD00023F480332B602B6823F48023CCE76B4B06
:100FE0009A6812F00C0F07D09A6802F00C02082AD7
:100FF00011D15B6859020ED4644B1A68920702D56E
:10100000E268012A82D11A68216922F0F80242EAD4
:10101000C1021A6084E7E3685C4DBBB12B6843F002
:1010200001032B60FFF720FB06462B689F0707D5BF
:101030002B68226923F0F80343EAC2032B606FE7B1
:10104000FFF712FB801B0228EFD9A2E72B6823F0E1
:1010500001032B60FFF708FB06462B6898077FF516
:101060005FAFFFF701FB801B0228F6D991E76369A8
:10107000464D83B16B6F43F001036B67FFF7F4FAE2
:1010800006466B6F9B073FF54FAFFFF7EDFA801BEE
:101090000228F6D97DE76B6F23F001036B67FFF73A
:1010A000E3FA06466B6F9F077FF53EAFFFF7DCFA6A
:1010B000801B0228F6D96CE7344B1A6CD00027D479
:1010C0001A6C012642F080521A641B6C03F08053A4
:1010D0000193019B2E4D2B68D9051BD5A3682B4D81
:1010E000012B27D12B6F43F001032B6741F2883589
:1010F000FFF7BAFA254F80463B6F9B073FD5002E7E
:101100003FF416AF214A136C23F0805313640FE7AA
:101110000026DFE72B6843F480732B60FFF7A4FA07
:1011200007462B68DA05D9D4FFF79EFAC01B64285E
:10113000F7D92EE7ABB92B6F41F2883823F00103C2
:101140002B672B6F23F004032B67FFF78DFA0746FD
:101150002B6F9807D3D5FFF787FAC01B4045F7D907
:1011600017E7052B2B6F03D143F004032B67B9E777
:1011700023F001032B672B6F23F00403B5E7FFF780
:1011800073FAA0EB0800A842B6D902E70038024083
:1011900000700040244DAB6803F00C03082B3FF4B3
:1011A000B5AE2B68022A23F080732B602FD1FFF796
:1011B0005BFA06462B68990123D4226AE36913433C
:1011C000626A43EA8213E26A43EA0263226B43EAF9
:1011D0000273A26A144C5208013A43EA02436B605C
:1011E0002B6843F080732B60FFF73EFA05462368B7
:1011F0009A013FF5A1AEFFF737FA401B0228F6D956
:10120000C7E6FFF731FA801B0228D3D9C1E6FFF702
:101210002BFA04462B689B017FF58EAEFFF724FA6C
:10122000001B0228F6D9B4E600380240134908B57D
:101230008B6803F00C03042B03D0082B03D0104859
:1012400008BD104808BD4A684B68496802F03F0273
:1012500013F48003C1F388111ABF0A480023084819
:10126000A1FB0001FFF73CF8044B5B68C3F30143AB
:1012700001335B00B0FBF3F008BD00BF0038024053
:101280000024F40000127A002DE9F0410D460446D6
:1012900010B90120BDE8F081464A136803F00F033E
:1012A0008B4228D321688F0730D4C80743D4414AE2
:1012B000136803F00F039D4267D32268510770D46F
:1012C000130707D53C4A2169936823F4604343EA36
:1012D000C1039360FFF7AAFF374B384A9B68C3F3FB
:1012E0000313D35CD840364B18600020FFF780F919
:1012F0000020BDE8F081136823F00F030B43136057
:10130000136803F00F039942C3D1CBE711F0040F28
:10131000294B03D09A6842F4E0529A600E0703D535
:101320009A6842F460429A609A68A06822F0F002DB
:1013300002439A60B9E761681F4B01291A681CD102
:1013400012F4003FA5D09A6841F288381A4E22F074
:1013500003020A439A60FFF787F90746B368626899
:1013600003F00C03B3EB820FA1D0FFF77DF9C01B94
:101370004045F3D90320BDE8F081022902D112F0E3
:10138000007FDFE712F0020FDCE7136823F00F03A2
:101390002B431360136803F00F039D427FF479AF72
:1013A0008BE70549E0688B6823F4E05303438B60C7
:1013B00086E700BF003C024000380240FD390008CB
:1013C00008000020014B1868704700BF080000208B
:1013D000044B054A9B68C3F38223D35C034A10681D
:1013E000D8407047003802400D3A0008080000203D
:1013F000044B054A9B68C3F34233D35C034A10682D
:10140000D8407047003802400D3A0008080000201C
:101410002DE9F7430268044612F001060BD0BA4BDF
:10142000996821F400019960466B99683143B6FAD6
:1014300086F67609996012F4002512D0B249E56B60
:10144000D1F88C30B5F5801F23F4401308BF012676
:1014500043EA050316BFB5FA85F500256D09C1F805
:101460008C30D70210D5A848216CD0F88C30B1F55B
:10147000800F23F4400343EA0103C0F88C3000F0EE
:10148000A981002908BF012512F0807F18BF01261D
:10149000900631D59C4B9D4F1A6C42F080521A64D5
:1014A0001B6C03F080530193019B3B6843F48073F2
:1014B0003B60FFF7D9F880463B68D90540F18C8145
:1014C000914F3B6F13F4407340F09181236B03F411
:1014D0004072B2F5407F8C4A40F0AF81916823F0B2
:1014E000704021F4F81120F4407001439160C3F37F
:1014F0000B03116F0B4313672368DF060CD5824A79
:10150000D2F88C1021F08071C2F88C10D2F88C10B7
:10151000A06B0143C2F88C10580408D57A49606E5C
:10152000D1F8902022F440320243C1F890201904EF
:1015300008D57549A06ED1F8902022F440220243CC
:10154000C1F89020DA0308D56F49E06ED1F89020F9
:1015500022F440120243C1F890209F0308D56A4943
:10156000206FD1F8902022F440020243C1F890206D
:10157000580608D56449606CD1F8902022F0030227
:101580000243C1F89020190608D55F49A06CD1F834
:10159000902022F00C020243C1F89020DA0508D511
:1015A0005949E06CD1F8902022F030020243C1F892
:1015B00090209F0508D55449206DD1F8902022F045
:1015C000C0020243C1F89020580508D54E49606D0D
:1015D000D1F8902022F440720243C1F890201905FE
:1015E00008D54949A06DD1F8902022F44062024309
:1015F000C1F89020DA0408D54349E06DD1F8902075
:1016000022F440520243C1F890209F0408D53E497D
:10161000206ED1F8902022F440420243C1F890207D
:10162000580208D53849A06FD1F8902022F0806286
:101630000243C1F8902099020CD53348E16FD0F8ED
:101640009020B1F1006F22F0006208BF01250A432B
:10165000C0F8902013F0080F18BF01255A0308D5D1
:101660002949606FD1F8902022F040720243C1F8FE
:1016700090201F0209D52449D4F88000D1F8902089
:1016800022F080520243C1F89020580109D51E492A
:10169000D4F88400D1F8902022F000520243C1F81F
:1016A0009020190109D51849D4F88800D1F88C2068
:1016B00022F000720243C1F88C20DA0009D51249E9
:1016C000D4F88C00D1F88C2022F080620243C1F85B
:1016D0008C20012E00F0B580B3F1007F00F0B180C6
:1016E000012D75D1084D2B6823F080532B60FEF738
:1016F000BBFF06462B689F0000F1278121680E037F
:1017000006D5E36B43B103E00038024000700040AF
:10171000CD021DD5236CDBB9934AD2F88830D2F8BC
:10172000880003F4403300F0E0400343606943EA7B
:101730008013A06943EA0063C2F88830D2F88C3085
:10174000A06A23F4F853013843EA0023C2F88C302E
:10175000880215D5E36FB3F1006F11D1824AD2F838
:101760008830D2F8880003F0706300F0E040034353
:10177000606943EA8013206A43EA0043C2F8883074
:101780000A0719D57849D1F88820D1F8883002F0B5
:10179000706203F440331343626943EA8213E269DF
:1017A00043EA0273C1F88830D1F88C30E26A23F43E
:1017B00040331343C1F88C306B4C236843F08053A3
:1017C0002360FEF751FF054623689B0040F1C4806B
:1017D000002009E0012657E6FEF746FFA0EB0800CF
:1017E00064287FF669AE032003B0BDE8F083226B66
:1017F00002F4407293423FF469AE3B6F3A6F23F4B8
:10180000407342F480323A673A6F22F480323A678A
:101810003B673B6FDA077FF559AEFEF725FF41F2D4
:10182000883980463B6F9B073FF550AEFEF71CFFA3
:10183000A0EB08004845F5D9D5E7916821F4F811E7
:1018400054E6494E336823F080633360FEF70CFFA3
:10185000074633681B0172D42268D70712D5636B21
:1018600083B9D6F88430D6F8841003F4403301F0FD
:1018700070610B43616843EA8113A16843EA017315
:10188000C6F88430160303D5E36BB3F5801F05D08B
:10189000D0021ED5236CB3F5800F1AD13249D1F88E
:1018A0008430D1F8840003F4403300F0E040034377
:1018B000606843EA8013E06843EA0063C1F884305B
:1018C000D1F88C00636A20F01F00013B0343C1F88C
:1018D0008C30D10111D52449D1F88430D1F884005D
:1018E00003F0706300F0E0400343606843EA801354
:1018F000206943EA0043C1F8843092010DD5236981
:1019000062681B0443EA8213E26843EA0263A26846
:1019100043EA0273144AC2F88430134E336843F02A
:1019200080633360FEF7A0FE074633681B013FF576
:10193000D7AEFEF799FEC01B6428F6D953E7FEF731
:1019400093FEC01B642884D94DE7FEF78DFE801BF3
:1019500064287FF6CFAE46E7FEF786FE401B64287C
:101960007FF632AF3FE700BF003802400368DA6815
:1019700042F00102DA60074A99680A40062A06D056
:10198000B2F5803F03D01A6842F001021A600020CD
:10199000704700BF070001007047704770477047ED
:1019A00003681A69910710B504460FD5DA689207E3
:1019B0000CD56FF002021A6101229B690277990728
:1019C00000F08580FFF7E9FF0023237723681A6979
:1019D000520710D5DA6850070DD56FF00402204683
:1019E0001A6102229B69227713F4407F75D0FFF7BA
:1019F000D4FF0023237723681A6911070FD5DA680B
:101A000012070CD56FF0080220461A610422DB6928
:101A100022779B0767D0FFF7C0FF00232377236857
:101A20001A69D00610D5DA68D1060DD56FF010020C
:101A300020461A610822DB69227713F4407F58D0D0
:101A4000FFF7ABFF0023237723681A69D20708D575
:101A5000DA68D00705D56FF0010220461A6100F060
:101A6000B5FE23681A69110608D5DA68120605D58D
:101A70006FF0800220461A6100F0EFF823681A69BF
:101A8000D00508D5DA68110605D56FF480722046B6
:101A90001A6100F0E3F823681A69520608D5DA687B
:101AA000500605D56FF0400220461A61FFF777FF18
:101AB00023681A69910622D5DA6892061FD56FF05D
:101AC000200220461A61BDE8104000F0C5B8FFF7BB
:101AD00063FF2046FFF762FF76E7FFF75DFF2046D2
:101AE000FFF75CFF85E7FFF757FF2046FFF756FF3C
:101AF00093E7FFF751FF2046FFF750FFA2E710BD25
:101B0000304A0368904212D0B0F1804F0FD0A2F556
:101B10007C4290420BD002F58062904207D002F5E1
:101B20008062904203D002F57842904219D14A680F
:101B300023F070031343234A904229D0B0F1804F21
:101B400026D0A2F57C42904222D002F580629042DB
:101B50001ED002F5806290421AD002F5784290427F
:101B600016D0194A904213D002F5806290420FD0ED
:101B700002F5806290420BD0A2F59832904207D0D5
:101B800002F58062904203D002F58062904203D158
:101B900023F44073CA6813434A6923F08003134354
:101BA00003608B68C3620B688362064B984203D064
:101BB00003F58063984201D10B69036301234361FC
:101BC000704700BF000001400040014010B50446CE
:101BD000A0B190F83D3003F0FF021BB980F83C2023
:101BE00000F0BEFE02232068211D84F83D30FFF77F
:101BF00087FF0123002084F83D3010BD012010BD77
:101C000090F83C30012B4FF0020330B51FD0026832
:101C1000104D80F83D30AA425368946803D005F512
:101C20008065AA4203D123F470034D682B430D68ED
:101C300023F07003896824F080042B432143536010
:101C40000123916080F83D30002380F83C30184635
:101C500030BD00BF00000140704770477047000072
:101C600038B5C26904460368816800691D6801438C
:101C700060690143904811432840256A0143E068A8
:101C80001960596821F4405101435960A16998686D
:101C9000294320F430600143996088498B4217D171
:101CA000874B8849D3F8903003F00303B2F5004F17
:101CB000CB5C29D1082B00F29D80DFE813F08C006B
:101CC000E800EE009B00FA009B009B009B00760062
:101CD0007D498B4206D17A4B7C49D3F8903003F092
:101CE0000C03E3E77A498B421DD1754BD3F8903052
:101CF00003F03003102B00F0D9800ED8002B67D0F2
:101D0000B2F5004F76D01023082B73D8DFE803F02C
:101D1000999FA272B4727272B700202B00F0BA8041
:101D2000302B3FD0ECE76B498B420DD1644BD3F89D
:101D3000903003F0C003402B00F0B880DED9802B38
:101D400000F0A880C02BECE763498B4210D15C4BBC
:101D5000D3F8903003F44073B3F5807F00F0A68091
:101D6000CCD9B3F5007F00F09580B3F5407FD8E77C
:101D70005A498B421ED1524BD3F8903003F4406342
:101D8000B3F5806F00F0928006D8002B7CD0B2F5BE
:101D9000004F2FD110238DE7B3F5006F7AD0B3F544
:101DA000406FF4D1B2F5004F69D16368580800F56F
:101DB000803078E04A498B4224D1414BD3F89030AF
:101DC00003F44053B3F5805F70D015D8002BDED1FB
:101DD000B2F5004F35D1FFF7FBFA6268530803EB09
:101DE0004000B0FBF2F080B24FF6EF73A0F11002AA
:101DF0009A421AD9012020E0B3F5005F4AD0B3F52A
:101E0000405FCEE737498B42F4D12D4BD3F8903069
:101E100003F44043B3F5804F48D07FF66FAFB3F57E
:101E2000004F37D0B3F5404F7BE720F00F03C0F3EE
:101E3000420022681843D0600020002323666366B6
:101E400038BDFFF7C5FA636800EB530008E0FFF701
:101E5000CFFAF8E76368580800F5740000F51050F1
:101E6000B0FBF3F080B24FF6EF73A0F110029A428C
:101E7000C0D82368D860DFE7FFF7D8F9E3E76368E5
:101E8000580800F50040EBE7B2F5004FDFD1FFF74F
:101E9000AFFAA2E7B2F5004FDCD16368580800F151
:101EA000F47000F59040B0FBF3F09CE7B2F5004F02
:101EB000E2D1FFF7BBF990E7F369FFEF00100140B3
:101EC00000380240C439000800440040C839000806
:101ED00000480040004C0040005000400014014009
:101EE00000780040007C0040436ADA0710B506D550
:101EF0000168846A4A6822F4003222434A609C07DF
:101F000006D50168C46A4A6822F4803222434A60D6
:101F1000590706D50168046B4A6822F480222243DF
:101F20004A601A0706D50168446B4A6822F40042E9
:101F300022434A60DC0606D50168846B8A6822F475
:101F4000805222438A60990606D50168C46B8A686C
:101F500022F4005222438A605A0610D50168046CAC
:101F60004A68B4F5801F22F4801242EA04024A60F3
:101F700005D14A68446C22F4C00222434A601B0621
:101F800006D50268816C536823F400230B43536029
:101F900010BD2DE9F041069D04460F4616469846B1
:101FA0002168CA6937EA02030CBF01220022B2424B
:101FB00002D00020BDE8F0816B1CF2D0FEF754FB8C
:101FC000A0EB0800854201D3002DE9D1236803204E
:101FD0001A6822F4D0721A609A6822F001029A609C
:101FE00020236367A367002384F87030BDE8F08185
:101FF0002DE9F7439846436F04460E46202B914641
:102000004BD1002947D0002A45D090F87030012BE1
:1020100043D00123002580F870302123C567436732
:10202000FEF722FBA3680746A4F85090B3F5805F43
:10203000A4F8529003D123690BB935461E46B4F873
:1020400052203B46CDF8008092B24AB9402120464A
:10205000FFF79FFF50B9202384F87000636706E004
:10206000002280212046FFF794FF18B1032003B01F
:10207000BDE8F08322685EB935F8023BC3F308037C
:102080009362B4F85230013B9BB2A4F85230D6E7C9
:1020900016F8013BF4E70120E9E70220E7E737B54E
:1020A00000250446C567FEF7DFFA2268034612687A
:1020B000120707D420230020636784F87000A36709
:1020C00003B030BD6FF07E424FF400112046009205
:1020D0002A46FFF75EFF0028ECD00320F0E710B59A
:1020E000044640B3436F1BB980F8703000F074FCB5
:1020F0002268242320466367136823F001031360DA
:10210000FFF7AEFD012816D0636A13B12046FFF732
:10211000EBFE236820465A6822F490425A609A687F
:1021200022F02A029A601A6842F00102BDE81040CB
:102130001A60FFF7B4BF012010BD00000A4B013B3D
:1021400001D1032070470269002AF8DA0369064AC0
:1021500043F001030361013AF3D0036913F0010373
:10216000F9D11846704700BF410D030084B038B55F
:1021700005AD044685E80E000A9B012B26D1836B32
:1021800023F480338363C36823F4840323F0400380
:10219000C360C36823F44013C360119B012B03D1B8
:1021A000C36843F48013C3602046FFF7C7FF089B52
:1021B000012B07D1A36843F00603A360A36843F093
:1021C0002003A360BDE8384004B07047C36843F003
:1021D0004003C360FFF7B2FFA36B43F48033A363F4
:1021E000E5E7836823F0010383600020704708B5AA
:1021F000C368012923F0C043C36008D1C36843F01A
:102200000053C3603220FEF735FA002008BD19B92B
:10221000C36843F08043F4E7012008BD8901074A01
:1022200041F020010161013A05D0036913F0200358
:10223000F9D1184670470320704700BF410D0300D5
:102240001023064A0361013A05D0036913F0100315
:10225000F9D1184670470320704700BF410D0300B5
:10226000D0F800381943C0F800180020704700006B
:1022700084B02DE9F047044609A8884680E80E009E
:1022800000230B9A0C9F0E991D46139E03F14000EC
:10229000013304EB80000F2B4560F7D1A36B002EB8
:1022A00071D123F40013A363236843F04003236038
:1022B000236843F0800323600023012904F50065AF
:1022C000C4F8003ED4F80038C4F8003861D1002AC0
:1022D0005DD100212046FFF7C3FF10212046FFF704
:1022E0009DFF01462046FFF7ABFF002855D1081C93
:1022F00018BF0120002304F510624FF0904E4FF0FC
:10230000006C19464FF67F392B616B61EB614345D9
:1023100045D1002104F530624FF0904C4FF0006839
:102320008E464FF67F398B424CD12B69012F23F417
:1023300080732B6107D12E4B2B632B6B43F48033BF
:1023400043F003032B630023A3616FF080436361B9
:102350001FB9A36943F01003A361A269254B13437E
:10236000A3610F9B1BB1A36943F00803A361012E76
:1023700005D1A36943F0804343F00403A361BDE8A2
:10238000F04704B0704743F40013A36394E70121BE
:10239000A0E703299BD003219CE70120AAE7D2F8FC
:1023A00000A0BAF1000F0BDA3BB9C2F800C011610E
:1023B0000133C2F808902032A9E7C2F800E0F6E73E
:1023C0001160F4E7D2F800A0BAF1000F0CDA41B9BD
:1023D000C2F80080C2F810E00131C2F80890203243
:1023E000A1E7C2F800C0F5E7C2F800E0F2E700BFDD
:1023F0000001800000383C8008B5D0F8043843F074
:102400000203C0F804380320FEF734F9002008BDA9
:1024100008B511480123114A802180E80C000023EF
:1024200042690382137042695170E12142699170DF
:102430004269D37042691371426953718361C36108
:102440004FF400030362FEF783FA18B1BDE80840B9
:1024500000F0DAB908BD00BFAC00002000800240E7
:10246000F0B58DB004461422002107A800F09EFBB1
:102470002268394B9A426DD1A3F590430226032579
:102480000B241A6B07A93548002742F000721A6323
:102490001A6B02F000720092009A1A6B42F080628E
:1024A0001A631A6B02F080620192019A1A6B42F071
:1024B00000621A631A6B02F000620292029A1A6BAF
:1024C00042F004021A631A6B02F004020392039AA8
:1024D0001A6B42F001021A631A6B02F001020492B5
:1024E000049A1A6B42F002021A631A6B02F002029B
:1024F0000592059A1A6B42F040021A631B6B08960C
:1025000003F040030A950B940693069B322307932E
:10251000FEF718FB862307A9114807930896099729
:102520000A950B94FEF70EFB4FF4005307A90D48D4
:102530000793089609970A950B94FEF703FB4FF44F
:10254000205307A908480793089609970A950B9402
:10255000FEF7F8FA0DB0F0BD00800240000802401E
:10256000000002400004024000180240F0B58DB0A7
:10257000142200213B4F07A83B4D00F017FB3B4BBB
:10258000384644F281011A6B0024012642F004020D
:102590001A631A6B02F004020192019A1A6B42F05C
:1025A00080021A631A6B02F080020292029A1A6B7E
:1025B00042F001021A631A6B02F001020392039ABD
:1025C0001A6B42F002021A631A6B02F002020492C2
:1025D000049A1A6B42F008021A631A6B02F008029E
:1025E0000592059A1A6B42F040021A6300221B6B97
:1025F00003F040030693069BFEF794FB0022284657
:102600004021FEF78FFB4FF4005307A918480793AA
:10261000184B09940893FEF795FA44F2810307A931
:1026200038460896079309940A94FEF78BFA4023DC
:1026300007A928460896079309940A94FEF782FA98
:10264000802307A92846089407930994FEF77AFA8D
:10265000224621462820FEF731F82820FEF766F8AA
:102660000DB0F0BD000402400018024000380240E6
:10267000000802400000111010B514464FF47A73A0
:1026800092B20248FFF7B4FC204610BD340100208E
:1026900010B5B8B034220021022407A800F086FA51
:1026A0001422002102A800F081FA0021902214A82F
:1026B00000F07CFAFEF7E6FB204B07A81A6C42F00C
:1026C00080521A641B6C03F080530093009B1C4BD8
:1026D0001A6842F440421A601B680D9403F44043A8
:1026E00011940193019B012307934FF4A0230893B6
:1026F0004FF480030E9304230F93D82310930923E0
:102700001293FEF7FFFBFEF7C5FB0F230394002493
:1027100002934FF4A053072102A805934FF480536E
:1027200004940693FEF7B0FD064B14A82794149367
:102730003394FEF76DFE38B010BD00BF0038024084
:10274000007000400001200080B5184DFDF774FFB7
:10275000174EFFF79DFF174FFFF708FFFFF758FED3
:1027600000F01CF900F06CF900F0D6F81248FFF701
:10277000FDF8124C4FF400513368384622689B1A1A
:102780002B60FEF7C9FA01280D4B08D11870FDF730
:102790006BFF296830600B4800F010FAE9E700226F
:1027A0001A70FDF761FF2060E3E700BF9000002092
:1027B0008C00002000080240F4000020940000205B
:1027C00098000020E23900087047000002680A4BB8
:1027D0009A4210B50ED1094CFDF746FF4FF48041E7
:1027E00020600748FEF7A3FA21680648BDE81040BC
:1027F00000F0E4B910BD00BF001400408C000020C0
:1028000000040240D5390008704700000A4B82B02E
:102810001A6C42F080521A641A6C02F080520092D4
:10282000009A5A6C42F480425A645B6C03F4804311
:102830000193019B02B07047003802407047FEE7E9
:10284000FEE7FEE7FEE7704770477047FDF700BF01
:102850004FF40050FEF772BA0148FFF7A1B800BF6D
:10286000F400002070B50E4615460C46A31B9D4291
:1028700001DC284670BDAFF3008004F8010BF5E7DA
:1028800008B50A4B0246196809B909491960186860
:10289000694602448A4206D900F05EF90C230360BF
:1028A0004FF0FF3008BD1A6008BD00BF9C0000203B
:1028B000BC0500204FF0FF3070474FF4005300205C
:1028C0004B60704701207047002070470F4900207F
:1028D000D1F8883043F47003C1F888300C4B1A6883
:1028E00042F001021A6098601A6822F0847222F4A1
:1028F00080321A60074A5A601A6822F480221A60ED
:10290000D8604FF000638B60704700BF00ED00E0BF
:1029100000380240103000241FB50F484EF65F23E8
:102920000E4A002480E80C0044F24F6301940294A4
:1029300003948460C3608461FFF748F908B1FFF72E
:1029400063FF01A9044801940394FFF759F908B102
:10295000FFF75AFF04B010BDF4000020001400403F
:1029600007B50D4B02689A4212D103F5093337209F
:102970001A6C42F020021A6400221B6C114603F00C
:1029800020030193019BFDF799FE3720FDF7CEFE52
:1029900003B05DF804FB00BF0014004008B50C480C
:1029A0004FF4E13E0B4B0C2280E8084000234261CB
:1029B0008360C36003618361C36103624362FFF7A5
:1029C0008EFB18B1BDE80840FFF71EBF08BD00BF71
:1029D000340100200048004010B588B0044614229D
:1029E000002103A800F0E2F82268134B9A4220D19C
:1029F00003F5F83303A911481A6C42F480221A64D3
:102A00001A6C02F480220192019A1A6B42F00802B9
:102A10001A631B6B03F008030293029B4FF440738D
:102A20000393022304930323069307230793FEF7DC
:102A300089F808B010BD00BF00480040000C0240FB
:102A400008B50C484FF0A042062380E80C00022293
:102A50000023C260826101220361C261036243629A
:102A6000C2620363FEF776F918B1BDE80840FFF7CC
:102A7000CBBE08BDB401002010B588B004461422B6
:102A8000002103A800F092F82368B3F1A04F32D1DF
:102A90001A4C03A91A48236B43F001032363236BE9
:102AA00003F001030093009B4FF4E85303930223C8
:102AB0000493032306930A230793FEF743F84FF486
:102AC000007303A90E480393002304930593FEF7B4
:102AD00039F8636B43F080036363636B03F0800337
:102AE0000193019B636C43F480436364636C03F460
:102AF00080430293029B08B010BD00BF0038024023
:102B000000000240DFF834D0002103E00C4B5B589A
:102B1000435004310B480C4B42189A42F6D30B4AEF
:102B200002E0002342F8043B094B9A42F9D3FFF735
:102B3000CDFE00F017F8FFF707FE704700000820F1
:102B4000C03A000800000020700000207000002043
:102B5000BC050020FEE70000014B1868704700BF6D
:102B60000C00002070B50D4E0D4CA41BA4100025C8
:102B7000A54209D10B4E0C4C00F018FFA41BA41069
:102B80000025A54205D170BD56F82530984701357E
:102B9000EEE756F8253098470135F2E7B83A0008D5
:102BA000B83A0008B83A0008BC3A000802440346A4
:102BB000934200D1704703F8011BF9E70FB40A4BA9
:102BC00013B51C6824B1A36913B9204600F04EF870
:102BD00005AB049AA1680193204600F059F902B0B0
:102BE000BDE8104004B070470C000020014900F01F
:102BF000A9B800BF65370008002310B5044603607C
:102C00004360836081814366C28103614361836164
:102C1000194608225C30FFF7C9FF054B6362054B7C
:102C2000A362054BE362054B2462236310BD00BF22
:102C3000093400082B340008633400088734000886
:102C400070B54A1E682555430E4605F1740100F023
:102C500097F8044640B1002180E842000C30A060A3
:102C600005F16802FFF7A2FF204670BD836910B529
:102C7000044633BB8364C3640365124B124A1B686A
:102C80008262984204BF0123836100F01FF86060F4
:102C9000204600F01BF8A060204600F017F8002244
:102CA000E06004216068FFF7A7FF01220921A06806
:102CB000FFF7A2FF02221221E068FFF79DFF012328
:102CC000A36110BD183A0008ED2B0008F8B51C4BA5
:102CD0001E68B369074613B93046FFF7C7FF483689
:102CE000B4687368013B03D5336833B13668F7E7DE
:102CF000B4F90C506DB16834F4E704213846FFF79D
:102D00009FFF30600028F1D10C233B600446204631
:102D1000F8BD4FF6FF73E3810123A381656625604B
:102D2000A560656025616561A5610822294604F1F9
:102D30005C00FFF73BFF6563A563A564E564E6E718
:102D4000183A00082DE9F8438046894600F1480406
:102D5000002614B93046BDE8F883A5686768013FCE
:102D600001D52468F5E7AB89012B07D9B5F90E30F9
:102D7000013303D029464046C84706436835EEE78D
:102D800070B5CD1C25F0030508350C2D38BF0C257A
:102D9000002D064601DBA94203D90C233360002035
:102DA00070BD00F07FFD234A1468214691B9224C82
:102DB00023681BB9304600F017FB206029463046D7
:102DC00000F012FB431C26D10C233360304600F088
:102DD0006AFDE4E70B685B1B1AD40B2B0FD90B6061
:102DE000CD50CC18304600F05EFD04F10B00231DE1
:102DF00020F00700C31A1BD05A42E25070BD8C422B
:102E00000DBF63684B686360136018BF0C46E9E749
:102E10000C464968CAE7C41C24F00304A04205D04C
:102E2000211A304600F0E0FA0130CDD02560D9E714
:102E300070BD00BFA0000020A40000209368013BEB
:102E4000002B10B4936009DA9469A34202DBCBB281
:102E50000A2B03D15DF8044B00F01ABB1368581C11
:102E600010601970C8B25DF8044B7047F8B506469B
:102E70000F461446D518AC4201D1002007E03A466F
:102E800014F8011B3046FFF7D9FF431CF3D1F8BDFE
:102E90002DE9F04F9DB00C4617460393064618B136
:102EA00083690BB9FFF7E2FE7C4B9C4257D17468F3
:102EB000A38918075DD52369002B5AD000230993F5
:102EC00020238DF8293030238DF82A304FF0010B64
:102ED000B846454615F8013B002B55D1B8EB070A1B
:102EE0000BD053463A4621463046FFF7BFFF01302C
:102EF00000F0C480099B5344099398F80030002BDC
:102F000000F0BC8000234FF0FF320493079305923A
:102F100006938DF853301A93052229786048FDF7FF
:102F20008FF905F10108049B002831D1D90644BF6F
:102F300020228DF853201A0744BF2B228DF85320EE
:102F40002A782A2A2CD0079A00210A20A84601357F
:102F500098F80030303B092B6DD971B326E0514B06
:102F60009C4201D1B468A3E74F4B9C4208BFF46870
:102F70009EE72146304600F0EFFA00289ED04FF041
:102F8000FF301DB0BDE8F08F252BA7D0A846A0E7E5
:102F9000434A801A0BFA00F0184304904546BBE7F9
:102FA000039A111D12680391002A01DB079204E0C5
:102FB000524243F002030792049398F800302E2BFC
:102FC00010D198F801302A2B08F1010137D1039B69
:102FD0001A1D1B680392002BB8BF4FF0FF3308F196
:102FE00002080593314D98F8001003222846FDF79A
:102FF00027F940B14023401B03FA00F0049B034330
:10300000049308F1010898F8001029488DF8281059
:10301000062208F10107FDF713F9002834D0254BEB
:1030200003BB039B073323F0070308330393099B78
:103030004B4409934CE700FB0232012186E7002351
:10304000059318460A258846013198F80020303A41
:10305000092A03D9002BC5D00590C3E705FB002042
:103060000123F0E703AB00932246134B04A930463B
:10307000AFF30080B0F1FF3F8146D8D1A3895B0652
:103080003FF57DAF09987CE703AB009322460A4BDE
:1030900004A9304600F088F8ECE700BF3C3A00088D
:1030A0007C3A00085C3A00081C3A0008823A0008A2
:1030B000863A0008000000006D2E00082DE9F04758
:1030C00091461F468A680B69DDF820809342B8BF9D
:1030D0001346C9F8003091F8432006460C4612B159
:1030E0000133C9F800302368990642BFD9F800308F
:1030F0000233C9F80030256815F0060507D104F140
:10310000190AE368D9F800209B1A9D4229DB94F83C
:1031100043302268003318BF012392062ED404F1F5
:10312000430239463046C047013021D02368E56864
:10313000D9F8002003F00603042B08BFAD1AA368DA
:1031400022690CBF25EAE57500259342C4BF9B1A8E
:10315000ED184FF000091A344D451BD10020BDE891
:10316000F0870123524639463046C047013003D12B
:103170004FF0FF30BDE8F0870135C2E7E1185A1C77
:10318000302081F84300224494F8451082F843101F
:103190000233C4E70123224639463046C047013096
:1031A000E6D009F10109D7E72DE9F04317460A7E79
:1031B00085B06E2A984606460C460C9B01F1430EDC
:1031C00000F0BC801AD8632A2ED00AD8002A00F05A
:1031D000C880582A00F08A8004F1420584F8422011
:1031E0002AE0642A01D0692AF6D121681A6811F010
:1031F000800F23D0111D1960136827E0732A00F097
:10320000B48008D86F2A2AD0702AE5D10A6842F023
:1032100020020A6003E0752A21D0782ADCD17822C6
:1032200084F845206E4964E01A6801F14205111DD9
:103230001960136884F842300123A3E011F0400FB5
:1032400002F104011960D7D0B2F90030002B03DA83
:103250002D225B4284F8432062490A2217E020684D
:10326000196810F0800F03D0081D18600B6806E085
:1032700010F0400F01F104001860F7D00B88594995
:103280006F2A14BF0A220822002084F843006568D0
:10329000A560002DC0F29C80206820F00400206012
:1032A000002B3FD1002D40F095807546082A0BD1A8
:1032B0002368DA0708D5236962689A42DEBF3023A3
:1032C00005F8013C05F1FF35AEEB05032361CDF8B0
:1032D00000803B4603AA21463046FFF7EFFE01304F
:1032E00055D14FF0FF3005B0BDE8F08381F845209F
:1032F0003C492268186812F0800F00F104051D6037
:1033000001D0036802E05506FBD50388D00744BF0F
:1033100042F0200222601BB9226822F020022260C3
:103320001022B1E77546B3FBF2F002FB1033CB5C21
:1033300005F8013D03460028F5D1B7E708681A688B
:10334000496910F0800F04D0101D186013681960CF
:1033500007E010F0400F02F1040018601368F6D087
:103360001980002323617546B1E71A68111D1960A1
:103370001568626800212846FCF762FF08B1401B0F
:10338000606063682361002384F843309FE723690A
:103390002A4639463046C0470130A2D023689B07F1
:1033A00007D5002504F11909E368039A9B1A9D4289
:1033B00005DBE068039B9842B8BF184693E70123FA
:1033C0004A4639463046C04701308AD00135EBE7DE
:1033D000002BA7D10B7884F8423004F1420565E751
:1033E0009E3A00088D3A000838B5064C0023054681
:1033F00008462360FFF744FA431C02D1236803B157
:103400002B6038BDB805002010B50C46B1F90E1080
:1034100000F098FA0028ABBF636DA3891B1823F452
:103420008053ACBF6365A38110BD2DE9F0411F46F9
:103430008B89DB0505460C46164605D5022300227E
:10344000B1F90E1000F0B8F9A389B4F90E1023F405
:103450008053A38132463B462846BDE8F04100F048
:1034600069B810B50C46B1F90E1000F0A5F9431C6F
:10347000A38915BF606523F4805343F48053A3816F
:1034800018BFA38110BDB1F90E1000F0D3B8000031
:10349000F8B50E461446054618B183690BB9FFF717
:1034A000E5FB214B9C422AD16C68A369A360A389E8
:1034B0001A072ED5236963B323692068C01A63698C
:1034C000F6B29842374604DB2146284600F04AF916
:1034D00028BBA368013BA36023685A1C22601E70AE
:1034E00063690130984204D0A389DB0719D50A2EFD
:1034F00017D12146284600F035F990B10FE00B4B6B
:103500009C4201D1AC68D0E7094B9C4208BFEC68F3
:10351000CBE72146284600F01FF80028CCD04FF01A
:10352000FF373846F8BD00BF3C3A00085C3A000857
:103530001C3A000838B5074C0546084611460022DB
:1035400022601A46FFF798F8431C02D1236803B1A2
:103550002B6038BDB8050020324B70B51D6806469B
:103560000C4625B1AB6913B92846FFF77FFB2E4BFC
:103570009C420FD16C68B4F90C309AB215072CD468
:10358000D00611D40922326043F04003A3814FF0EA
:10359000FF3070BD254B9C4201D1AC68EBE7244B5A
:1035A0009C4208BFEC68E6E7510712D5616B41B158
:1035B00004F14403994202D0304600F075F900232B
:1035C0006363A38923F02403A38100236360236939
:1035D0002360A38943F00803A38123694BB9A3891E
:1035E00003F42073B3F5007F03D02146304600F08A
:1035F00019F9A28912F001030CD00023A3606369BA
:103600005B42A361236953B9B4F90C3013F0800015
:10361000BAD170BD920758BF6369A360F2E700207A
:10362000F7E700BF0C0000203C3A00085C3A0008B5
:103630001C3A000838B5064C0023054608462360AE
:10364000FFF738F9431C02D1236803B12B6038BD62
:10365000B80500208A892DE9F041054610070C467F
:103660005AD44B68002B05DC0B6C002B02DC0020CD
:10367000BDE8F081E66A002EF9D0002312F48052F2
:103680002F682B6033D0606DA3895A0705D5636816
:10369000C01A636B0BB1236CC01A00230246E66AA2
:1036A000216A2846B047431CA38906D129681D29F1
:1036B0004BD82B4ACA40D60747D500226260D904AE
:1036C0002269226004D5421C01D12B6803B96065D0
:1036D000616B2F600029CAD004F14403994202D0E3
:1036E000284600F0E1F800206063BDE8F081216A1F
:1036F00001232846B047411CC6D12B68002BC3D0FC
:103700001D2B01D0162B01D12F60B0E7A38943F008
:103710004003A381BDE8F0810F69002FA7D0930774
:103720000E6808BF4B690F6018BF0023A6EB07089F
:103730008B60B8F1000F9ADD43463A46216AA66ACB
:103740002846B047002807DCA38943F04003A38143
:103750004FF0FF30BDE8F0810744A8EB0008E8E730
:103760000100402038B50B6905460C46DBB118B1A5
:1037700083690BB9FFF77AFA0C4B9C4209D16C684C
:10378000B4F90C307BB121462846BDE83840FFF73C
:1037900061BF074B9C4201D1AC68F1E7054B9C42ED
:1037A00008BFEC68ECE7002038BD00BF3C3A0008D9
:1037B0005C3A00081C3A000838B5074C0546084634
:1037C0001146002222601A46FFF77EF8431C02D100
:1037D000236803B12B6038BDB805002070B50E46D4
:1037E000B1F90E10002990B014461D4607DA0023E7
:1037F0002B60B3891A0610D44FF480630EE001AA3F
:1038000000F0B2F80028F2DB029A02F47042A2F54E
:1038100000535A425A412A60EEE7402300202360B9
:1038200010B070BD8B8973B59D0706460C4607D551
:1038300004F14703236023610123636102B070BD7B
:1038400001AB6A46FFF7CAFF009905463046FFF70D
:1038500097FA48B9B4F90C309A05EFD423F0030372
:1038600043F00203A381E3E70D4BB362A389206019
:1038700043F08003A381009B6361019B20615BB1E6
:10388000B4F90E10304600F081F828B1A38923F076
:10389000030343F00103A381A3891D43A581CDE761
:1038A000ED2B00087047704738B50546002945D014
:1038B00051F8043C0C1F002BB8BFE418FFF7F2FFCF
:1038C0001F4A1368104633B9636014602846BDE888
:1038D0003840FFF7E8BFA3420CD921686218934231
:1038E00004BF1A685B68636004BF521822600460FA
:1038F000ECE713465A680AB1A242FAD91968581877
:10390000A0420BD120680144581882421960DDD1D1
:10391000106852685A6001441960D7E702D90C2335
:103920002B60D3E7206821188A4204BF11685268CF
:10393000626004BF091821605C60C7E738BD00BF42
:10394000A000002038B5074C054608461146002265
:1039500022601A46FEF786FF431C02D1236803B19A
:103960002B6038BDB805002038B5074C002305464C
:10397000084611462360FEF7A0FF431C02D12368CE
:1039800003B12B6038BD00BFB805002038B5064C28
:103990000023054608462360FEF794FF431C02D12E
:1039A000236803B12B6038BDB8050020F8B500BF0F
:1039B000F8BC08BC9E467047F8B500BFF8BC08BC10
:0439C0009E46704768
:1039C400010402080010101004101010021010104E
:1039D400085469636B203A202564200D0A0062753F
:1039E4007465656E206973207072657373656421F4
:1039F40021203A2025640D0A000000000000000088
:103A04000001020304060708090000000001020384
:103A1400040000001000002000000000000000006E
:103A24000000000000000000000000000000000092
:103A34000000000000000000000000000000000082
:103A44000000000000000000000000000000000072
:103A54000000000000000000000000000000000062
:103A64000000000000000000000000000000000052
:103A74000000000000000000232D302B2000686CA3
:103A84004C0065666745464700303132333435367D
:103A940037383941424344454600303132333435B6
:0C3AA400363738396162636465660000E3
:083AB00060C8FF7F0100000067
:043AB80025020008DB
:043ABC0001020008FB
:103AC00001000000100000000024F400100000209D
:103AD000000000003C3A00085C3A00081C3A00086C
:103AE00000000000000000000000000000000000D6
:103AF00000000000000000000000000000000000C6
:103B000000000000000000000000000000000000B5
:103B100000000000000000000000000000000000A5
:103B20000000000000000000000000000000000095
:0400000508002B05BF
:00000001FF
